{
  "_format": "hh-sol-artifact-1",
  "contractName": "NFT",
  "sourceName": "contracts/NFT.sol",
  "abi": [
    {
      "inputs": [],
      "stateMutability": "nonpayable",
      "type": "constructor"
    },
    {
      "inputs": [],
      "name": "ApprovalCallerNotOwnerNorApproved",
      "type": "error"
    },
    {
      "inputs": [],
      "name": "ApprovalQueryForNonexistentToken",
      "type": "error"
    },
    {
      "inputs": [],
      "name": "ApprovalToCurrentOwner",
      "type": "error"
    },
    {
      "inputs": [],
      "name": "ApproveToCaller",
      "type": "error"
    },
    {
      "inputs": [],
      "name": "BalanceQueryForZeroAddress",
      "type": "error"
    },
    {
      "inputs": [
        {
          "internalType": "string",
          "name": "error",
          "type": "string"
        }
      ],
      "name": "MintFinished",
      "type": "error"
    },
    {
      "inputs": [],
      "name": "MintToZeroAddress",
      "type": "error"
    },
    {
      "inputs": [],
      "name": "MintZeroQuantity",
      "type": "error"
    },
    {
      "inputs": [],
      "name": "OwnerQueryForNonexistentToken",
      "type": "error"
    },
    {
      "inputs": [],
      "name": "TransferCallerNotOwnerNorApproved",
      "type": "error"
    },
    {
      "inputs": [],
      "name": "TransferFromIncorrectOwner",
      "type": "error"
    },
    {
      "inputs": [],
      "name": "TransferToNonERC721ReceiverImplementer",
      "type": "error"
    },
    {
      "inputs": [],
      "name": "TransferToZeroAddress",
      "type": "error"
    },
    {
      "inputs": [],
      "name": "URIQueryForNonexistentToken",
      "type": "error"
    },
    {
      "anonymous": false,
      "inputs": [
        {
          "indexed": true,
          "internalType": "address",
          "name": "owner",
          "type": "address"
        },
        {
          "indexed": true,
          "internalType": "address",
          "name": "approved",
          "type": "address"
        },
        {
          "indexed": true,
          "internalType": "uint256",
          "name": "tokenId",
          "type": "uint256"
        }
      ],
      "name": "Approval",
      "type": "event"
    },
    {
      "anonymous": false,
      "inputs": [
        {
          "indexed": true,
          "internalType": "address",
          "name": "owner",
          "type": "address"
        },
        {
          "indexed": true,
          "internalType": "address",
          "name": "operator",
          "type": "address"
        },
        {
          "indexed": false,
          "internalType": "bool",
          "name": "approved",
          "type": "bool"
        }
      ],
      "name": "ApprovalForAll",
      "type": "event"
    },
    {
      "anonymous": false,
      "inputs": [
        {
          "indexed": true,
          "internalType": "address",
          "name": "from",
          "type": "address"
        },
        {
          "indexed": true,
          "internalType": "address",
          "name": "to",
          "type": "address"
        },
        {
          "indexed": true,
          "internalType": "uint256",
          "name": "tokenId",
          "type": "uint256"
        }
      ],
      "name": "Transfer",
      "type": "event"
    },
    {
      "inputs": [
        {
          "internalType": "address",
          "name": "to",
          "type": "address"
        },
        {
          "internalType": "uint256",
          "name": "tokenId",
          "type": "uint256"
        }
      ],
      "name": "approve",
      "outputs": [],
      "stateMutability": "nonpayable",
      "type": "function"
    },
    {
      "inputs": [
        {
          "internalType": "address",
          "name": "owner",
          "type": "address"
        }
      ],
      "name": "balanceOf",
      "outputs": [
        {
          "internalType": "uint256",
          "name": "",
          "type": "uint256"
        }
      ],
      "stateMutability": "view",
      "type": "function"
    },
    {
      "inputs": [
        {
          "internalType": "uint256",
          "name": "tokenId",
          "type": "uint256"
        }
      ],
      "name": "getApproved",
      "outputs": [
        {
          "internalType": "address",
          "name": "",
          "type": "address"
        }
      ],
      "stateMutability": "view",
      "type": "function"
    },
    {
      "inputs": [
        {
          "internalType": "address",
          "name": "owner",
          "type": "address"
        },
        {
          "internalType": "address",
          "name": "operator",
          "type": "address"
        }
      ],
      "name": "isApprovedForAll",
      "outputs": [
        {
          "internalType": "bool",
          "name": "",
          "type": "bool"
        }
      ],
      "stateMutability": "view",
      "type": "function"
    },
    {
      "inputs": [
        {
          "internalType": "address",
          "name": "_address",
          "type": "address"
        }
      ],
      "name": "isContractOwner",
      "outputs": [
        {
          "internalType": "bool",
          "name": "",
          "type": "bool"
        }
      ],
      "stateMutability": "view",
      "type": "function"
    },
    {
      "inputs": [],
      "name": "maxSupply",
      "outputs": [
        {
          "internalType": "uint256",
          "name": "",
          "type": "uint256"
        }
      ],
      "stateMutability": "view",
      "type": "function"
    },
    {
      "inputs": [
        {
          "internalType": "address",
          "name": "_address",
          "type": "address"
        }
      ],
      "name": "mintToAddress",
      "outputs": [],
      "stateMutability": "nonpayable",
      "type": "function"
    },
    {
      "inputs": [],
      "name": "name",
      "outputs": [
        {
          "internalType": "string",
          "name": "",
          "type": "string"
        }
      ],
      "stateMutability": "view",
      "type": "function"
    },
    {
      "inputs": [
        {
          "internalType": "uint256",
          "name": "tokenId",
          "type": "uint256"
        }
      ],
      "name": "ownerOf",
      "outputs": [
        {
          "internalType": "address",
          "name": "",
          "type": "address"
        }
      ],
      "stateMutability": "view",
      "type": "function"
    },
    {
      "inputs": [
        {
          "internalType": "address",
          "name": "from",
          "type": "address"
        },
        {
          "internalType": "address",
          "name": "to",
          "type": "address"
        },
        {
          "internalType": "uint256",
          "name": "tokenId",
          "type": "uint256"
        }
      ],
      "name": "safeTransferFrom",
      "outputs": [],
      "stateMutability": "nonpayable",
      "type": "function"
    },
    {
      "inputs": [
        {
          "internalType": "address",
          "name": "from",
          "type": "address"
        },
        {
          "internalType": "address",
          "name": "to",
          "type": "address"
        },
        {
          "internalType": "uint256",
          "name": "tokenId",
          "type": "uint256"
        },
        {
          "internalType": "bytes",
          "name": "_data",
          "type": "bytes"
        }
      ],
      "name": "safeTransferFrom",
      "outputs": [],
      "stateMutability": "nonpayable",
      "type": "function"
    },
    {
      "inputs": [
        {
          "internalType": "address",
          "name": "operator",
          "type": "address"
        },
        {
          "internalType": "bool",
          "name": "approved",
          "type": "bool"
        }
      ],
      "name": "setApprovalForAll",
      "outputs": [],
      "stateMutability": "nonpayable",
      "type": "function"
    },
    {
      "inputs": [
        {
          "internalType": "string",
          "name": "baseURI",
          "type": "string"
        }
      ],
      "name": "setBaseURI",
      "outputs": [],
      "stateMutability": "nonpayable",
      "type": "function"
    },
    {
      "inputs": [
        {
          "internalType": "bytes4",
          "name": "interfaceId",
          "type": "bytes4"
        }
      ],
      "name": "supportsInterface",
      "outputs": [
        {
          "internalType": "bool",
          "name": "",
          "type": "bool"
        }
      ],
      "stateMutability": "view",
      "type": "function"
    },
    {
      "inputs": [],
      "name": "symbol",
      "outputs": [
        {
          "internalType": "string",
          "name": "",
          "type": "string"
        }
      ],
      "stateMutability": "view",
      "type": "function"
    },
    {
      "inputs": [
        {
          "internalType": "uint256",
          "name": "tokenId",
          "type": "uint256"
        }
      ],
      "name": "tokenURI",
      "outputs": [
        {
          "internalType": "string",
          "name": "",
          "type": "string"
        }
      ],
      "stateMutability": "view",
      "type": "function"
    },
    {
      "inputs": [],
      "name": "totalMinted",
      "outputs": [
        {
          "internalType": "uint256",
          "name": "",
          "type": "uint256"
        }
      ],
      "stateMutability": "view",
      "type": "function"
    },
    {
      "inputs": [],
      "name": "totalSupply",
      "outputs": [
        {
          "internalType": "uint256",
          "name": "",
          "type": "uint256"
        }
      ],
      "stateMutability": "view",
      "type": "function"
    },
    {
      "inputs": [
        {
          "internalType": "address",
          "name": "from",
          "type": "address"
        },
        {
          "internalType": "address",
          "name": "to",
          "type": "address"
        },
        {
          "internalType": "uint256",
          "name": "tokenId",
          "type": "uint256"
        }
      ],
      "name": "transferFrom",
      "outputs": [],
      "stateMutability": "nonpayable",
      "type": "function"
    },
    {
      "inputs": [],
      "name": "withdrawAll",
      "outputs": [],
      "stateMutability": "payable",
      "type": "function"
    }
  ],
  "bytecode": "0x608060405260405180608001604052806052815260200162002fee605291396009908051906020019062000035929190620002c1565b506019600a553480156200004857600080fd5b506040518060400160405280600c81526020017f45544873746572204769667400000000000000000000000000000000000000008152506040518060400160405280600b81526020017f45544853544552474946540000000000000000000000000000000000000000008152508160029080519060200190620000cd929190620002c1565b508060039080519060200190620000e6929190620002c1565b50620000f7620002b060201b60201c565b60008190555050506001600860007339beb60bc4c1b8b0ebeedc515c7a56e7dfb3a5a973ffffffffffffffffffffffffffffffffffffffff1673ffffffffffffffffffffffffffffffffffffffff16815260200190815260200160002060006101000a81548160ff021916908315150217905550600160086000739ead888876b3978e8b138d4b6416111255b89e0373ffffffffffffffffffffffffffffffffffffffff1673ffffffffffffffffffffffffffffffffffffffff16815260200190815260200160002060006101000a81548160ff02191690831515021790555060016008600073aeb37ff5c6a7f43e721849873eda2dae2b6871f973ffffffffffffffffffffffffffffffffffffffff1673ffffffffffffffffffffffffffffffffffffffff16815260200190815260200160002060006101000a81548160ff02191690831515021790555060016008600062000259620002b960201b60201c565b73ffffffffffffffffffffffffffffffffffffffff1673ffffffffffffffffffffffffffffffffffffffff16815260200190815260200160002060006101000a81548160ff021916908315150217905550620003d6565b60006001905090565b600033905090565b828054620002cf9062000371565b90600052602060002090601f016020900481019282620002f357600085556200033f565b82601f106200030e57805160ff19168380011785556200033f565b828001600101855582156200033f579182015b828111156200033e57825182559160200191906001019062000321565b5b5090506200034e919062000352565b5090565b5b808211156200036d57600081600090555060010162000353565b5090565b600060028204905060018216806200038a57607f821691505b60208210811415620003a157620003a0620003a7565b5b50919050565b7f4e487b7100000000000000000000000000000000000000000000000000000000600052602260045260246000fd5b612c0880620003e66000396000f3fe60806040526004361061011f5760003560e01c8063853828b6116100a0578063c87b56dd11610064578063c87b56dd146103c4578063d5abeb0114610401578063de1176881461042c578063e985e9c514610469578063ffd4aa55146104a65761011f565b8063853828b61461031257806395d89b411461031c578063a22cb46514610347578063a2309ff814610370578063b88d4fde1461039b5761011f565b806323b872dd116100e757806323b872dd1461021d57806342842e0e1461024657806355f804b31461026f5780636352211e1461029857806370a08231146102d55761011f565b806301ffc9a71461012457806306fdde0314610161578063081812fc1461018c578063095ea7b3146101c957806318160ddd146101f2575b600080fd5b34801561013057600080fd5b5061014b60048036038101906101469190612339565b6104cf565b6040516101589190612643565b60405180910390f35b34801561016d57600080fd5b506101766105b1565b604051610183919061265e565b60405180910390f35b34801561019857600080fd5b506101b360048036038101906101ae91906123cc565b610643565b6040516101c091906125dc565b60405180910390f35b3480156101d557600080fd5b506101f060048036038101906101eb91906122fd565b6106bf565b005b3480156101fe57600080fd5b506102076107ca565b60405161021491906126c0565b60405180910390f35b34801561022957600080fd5b50610244600480360381019061023f91906121f7565b6107e1565b005b34801561025257600080fd5b5061026d600480360381019061026891906121f7565b6107f1565b005b34801561027b57600080fd5b506102966004803603810190610291919061238b565b610811565b005b3480156102a457600080fd5b506102bf60048036038101906102ba91906123cc565b6108be565b6040516102cc91906125dc565b60405180910390f35b3480156102e157600080fd5b506102fc60048036038101906102f79190612192565b6108d4565b60405161030991906126c0565b60405180910390f35b61031a6109a4565b005b34801561032857600080fd5b50610331610a7e565b60405161033e919061265e565b60405180910390f35b34801561035357600080fd5b5061036e600480360381019061036991906122c1565b610b10565b005b34801561037c57600080fd5b50610385610c88565b60405161039291906126c0565b60405180910390f35b3480156103a757600080fd5b506103c260048036038101906103bd9190612246565b610c9b565b005b3480156103d057600080fd5b506103eb60048036038101906103e691906123cc565b610d17565b6040516103f8919061265e565b60405180910390f35b34801561040d57600080fd5b50610416610d8a565b60405161042391906126c0565b60405180910390f35b34801561043857600080fd5b50610453600480360381019061044e9190612192565b610d90565b6040516104609190612643565b60405180910390f35b34801561047557600080fd5b50610490600480360381019061048b91906121bb565b610de6565b60405161049d9190612643565b60405180910390f35b3480156104b257600080fd5b506104cd60048036038101906104c89190612192565b610e7a565b005b60007f80ac58cd000000000000000000000000000000000000000000000000000000007bffffffffffffffffffffffffffffffffffffffffffffffffffffffff1916827bffffffffffffffffffffffffffffffffffffffffffffffffffffffff1916148061059a57507f5b5e139f000000000000000000000000000000000000000000000000000000007bffffffffffffffffffffffffffffffffffffffffffffffffffffffff1916827bffffffffffffffffffffffffffffffffffffffffffffffffffffffff1916145b806105aa57506105a982610f66565b5b9050919050565b6060600280546105c09061292b565b80601f01602080910402602001604051908101604052809291908181526020018280546105ec9061292b565b80156106395780601f1061060e57610100808354040283529160200191610639565b820191906000526020600020905b81548152906001019060200180831161061c57829003601f168201915b5050505050905090565b600061064e82610fd0565b610684576040517fcf4700e400000000000000000000000000000000000000000000000000000000815260040160405180910390fd5b6006600083815260200190815260200160002060009054906101000a900473ffffffffffffffffffffffffffffffffffffffff169050919050565b60006106ca826108be565b90508073ffffffffffffffffffffffffffffffffffffffff168373ffffffffffffffffffffffffffffffffffffffff161415610732576040517f943f7b8c00000000000000000000000000000000000000000000000000000000815260040160405180910390fd5b8073ffffffffffffffffffffffffffffffffffffffff1661075161101e565b73ffffffffffffffffffffffffffffffffffffffff161415801561078357506107818161077c61101e565b610de6565b155b156107ba576040517fcfb3b94200000000000000000000000000000000000000000000000000000000815260040160405180910390fd5b6107c5838383611026565b505050565b60006107d46110d8565b6001546000540303905090565b6107ec8383836110e1565b505050565b61080c83838360405180602001604052806000815250610c9b565b505050565b6008600061081d61101e565b73ffffffffffffffffffffffffffffffffffffffff1673ffffffffffffffffffffffffffffffffffffffff16815260200190815260200160002060009054906101000a900460ff166108a4576040517f08c379a000000000000000000000000000000000000000000000000000000000815260040161089b906126a0565b60405180910390fd5b80600990805190602001906108ba929190611f73565b5050565b60006108c982611597565b600001519050919050565b60008073ffffffffffffffffffffffffffffffffffffffff168273ffffffffffffffffffffffffffffffffffffffff16141561093c576040517f8f4eb60400000000000000000000000000000000000000000000000000000000815260040160405180910390fd5b600560008373ffffffffffffffffffffffffffffffffffffffff1673ffffffffffffffffffffffffffffffffffffffff16815260200190815260200160002060000160009054906101000a900467ffffffffffffffff1667ffffffffffffffff169050919050565b600860006109b061101e565b73ffffffffffffffffffffffffffffffffffffffff1673ffffffffffffffffffffffffffffffffffffffff16815260200190815260200160002060009054906101000a900460ff16610a37576040517f08c379a0000000000000000000000000000000000000000000000000000000008152600401610a2e906126a0565b60405180910390fd5b610a3f61101e565b73ffffffffffffffffffffffffffffffffffffffff166108fc479081150290604051600060405180830381858888f19350505050610a7c57600080fd5b565b606060038054610a8d9061292b565b80601f0160208091040260200160405190810160405280929190818152602001828054610ab99061292b565b8015610b065780601f10610adb57610100808354040283529160200191610b06565b820191906000526020600020905b815481529060010190602001808311610ae957829003601f168201915b5050505050905090565b610b1861101e565b73ffffffffffffffffffffffffffffffffffffffff168273ffffffffffffffffffffffffffffffffffffffff161415610b7d576040517fb06307db00000000000000000000000000000000000000000000000000000000815260040160405180910390fd5b8060076000610b8a61101e565b73ffffffffffffffffffffffffffffffffffffffff1673ffffffffffffffffffffffffffffffffffffffff16815260200190815260200160002060008473ffffffffffffffffffffffffffffffffffffffff1673ffffffffffffffffffffffffffffffffffffffff16815260200190815260200160002060006101000a81548160ff0219169083151502179055508173ffffffffffffffffffffffffffffffffffffffff16610c3761101e565b73ffffffffffffffffffffffffffffffffffffffff167f17307eab39ab6107e8899845ad3d59bd9653f200f220920489ca2b5937696c3183604051610c7c9190612643565b60405180910390a35050565b6000610c926110d8565b60005403905090565b610ca68484846110e1565b610cc58373ffffffffffffffffffffffffffffffffffffffff16611826565b8015610cda5750610cd884848484611849565b155b15610d11576040517fd1a57ed600000000000000000000000000000000000000000000000000000000815260040160405180910390fd5b50505050565b6060610d2282610fd0565b610d58576040517fa14c4b5000000000000000000000000000000000000000000000000000000000815260040160405180910390fd5b6009610d63836119a9565b604051602001610d749291906125ad565b6040516020818303038152906040529050919050565b600a5481565b6000600860008373ffffffffffffffffffffffffffffffffffffffff1673ffffffffffffffffffffffffffffffffffffffff16815260200190815260200160002060009054906101000a900460ff169050919050565b6000600760008473ffffffffffffffffffffffffffffffffffffffff1673ffffffffffffffffffffffffffffffffffffffff16815260200190815260200160002060008373ffffffffffffffffffffffffffffffffffffffff1673ffffffffffffffffffffffffffffffffffffffff16815260200190815260200160002060009054906101000a900460ff16905092915050565b60086000610e8661101e565b73ffffffffffffffffffffffffffffffffffffffff1673ffffffffffffffffffffffffffffffffffffffff16815260200190815260200160002060009054906101000a900460ff16610f0d576040517f08c379a0000000000000000000000000000000000000000000000000000000008152600401610f04906126a0565b60405180910390fd5b600a54610f18611b56565b10610f58576040517ffcccdb63000000000000000000000000000000000000000000000000000000008152600401610f4f90612680565b60405180910390fd5b610f63816001611b69565b50565b60007f01ffc9a7000000000000000000000000000000000000000000000000000000007bffffffffffffffffffffffffffffffffffffffffffffffffffffffff1916827bffffffffffffffffffffffffffffffffffffffffffffffffffffffff1916149050919050565b600081610fdb6110d8565b11158015610fea575060005482105b8015611017575060046000838152602001908152602001600020600001601c9054906101000a900460ff16155b9050919050565b600033905090565b826006600084815260200190815260200160002060006101000a81548173ffffffffffffffffffffffffffffffffffffffff021916908373ffffffffffffffffffffffffffffffffffffffff160217905550818373ffffffffffffffffffffffffffffffffffffffff168273ffffffffffffffffffffffffffffffffffffffff167f8c5be1e5ebec7d5bd14f71427d1e84f3dd0314c0f7b2291e5b200ac8c7c3b92560405160405180910390a4505050565b60006001905090565b60006110ec82611597565b90508373ffffffffffffffffffffffffffffffffffffffff16816000015173ffffffffffffffffffffffffffffffffffffffff1614611157576040517fa114810000000000000000000000000000000000000000000000000000000000815260040160405180910390fd5b60008473ffffffffffffffffffffffffffffffffffffffff1661117861101e565b73ffffffffffffffffffffffffffffffffffffffff1614806111a757506111a6856111a161101e565b610de6565b5b806111ec57506111b561101e565b73ffffffffffffffffffffffffffffffffffffffff166111d484610643565b73ffffffffffffffffffffffffffffffffffffffff16145b905080611225576040517f59c896be00000000000000000000000000000000000000000000000000000000815260040160405180910390fd5b600073ffffffffffffffffffffffffffffffffffffffff168473ffffffffffffffffffffffffffffffffffffffff16141561128c576040517fea553b3400000000000000000000000000000000000000000000000000000000815260040160405180910390fd5b6112998585856001611b87565b6112a560008487611026565b6001600560008773ffffffffffffffffffffffffffffffffffffffff1673ffffffffffffffffffffffffffffffffffffffff16815260200190815260200160002060000160008282829054906101000a900467ffffffffffffffff160392506101000a81548167ffffffffffffffff021916908367ffffffffffffffff1602179055506001600560008673ffffffffffffffffffffffffffffffffffffffff1673ffffffffffffffffffffffffffffffffffffffff16815260200190815260200160002060000160008282829054906101000a900467ffffffffffffffff160192506101000a81548167ffffffffffffffff021916908367ffffffffffffffff1602179055506000600460008581526020019081526020016000209050848160000160006101000a81548173ffffffffffffffffffffffffffffffffffffffff021916908373ffffffffffffffffffffffffffffffffffffffff160217905550428160000160146101000a81548167ffffffffffffffff021916908367ffffffffffffffff16021790555060006001850190506000600460008381526020019081526020016000209050600073ffffffffffffffffffffffffffffffffffffffff168160000160009054906101000a900473ffffffffffffffffffffffffffffffffffffffff1673ffffffffffffffffffffffffffffffffffffffff16141561152557600054821461152457878160000160006101000a81548173ffffffffffffffffffffffffffffffffffffffff021916908373ffffffffffffffffffffffffffffffffffffffff16021790555084602001518160000160146101000a81548167ffffffffffffffff021916908367ffffffffffffffff1602179055505b5b505050828473ffffffffffffffffffffffffffffffffffffffff168673ffffffffffffffffffffffffffffffffffffffff167fddf252ad1be2c89b69c2b068fc378daa952ba7f163c4a11628f55a4df523b3ef60405160405180910390a46115908585856001611b8d565b5050505050565b61159f611ff9565b6000829050806115ad6110d8565b111580156115bc575060005481105b156117ef576000600460008381526020019081526020016000206040518060600160405290816000820160009054906101000a900473ffffffffffffffffffffffffffffffffffffffff1673ffffffffffffffffffffffffffffffffffffffff1673ffffffffffffffffffffffffffffffffffffffff1681526020016000820160149054906101000a900467ffffffffffffffff1667ffffffffffffffff1667ffffffffffffffff16815260200160008201601c9054906101000a900460ff161515151581525050905080604001516117ed57600073ffffffffffffffffffffffffffffffffffffffff16816000015173ffffffffffffffffffffffffffffffffffffffff16146116d1578092505050611821565b5b6001156117ec57818060019003925050600460008381526020019081526020016000206040518060600160405290816000820160009054906101000a900473ffffffffffffffffffffffffffffffffffffffff1673ffffffffffffffffffffffffffffffffffffffff1673ffffffffffffffffffffffffffffffffffffffff1681526020016000820160149054906101000a900467ffffffffffffffff1667ffffffffffffffff1667ffffffffffffffff16815260200160008201601c9054906101000a900460ff1615151515815250509050600073ffffffffffffffffffffffffffffffffffffffff16816000015173ffffffffffffffffffffffffffffffffffffffff16146117e7578092505050611821565b6116d2565b5b505b6040517fdf2d9b4200000000000000000000000000000000000000000000000000000000815260040160405180910390fd5b919050565b6000808273ffffffffffffffffffffffffffffffffffffffff163b119050919050565b60008373ffffffffffffffffffffffffffffffffffffffff1663150b7a0261186f61101e565b8786866040518563ffffffff1660e01b815260040161189194939291906125f7565b602060405180830381600087803b1580156118ab57600080fd5b505af19250505080156118dc57506040513d601f19601f820116820180604052508101906118d99190612362565b60015b611956573d806000811461190c576040519150601f19603f3d011682016040523d82523d6000602084013e611911565b606091505b5060008151141561194e576040517fd1a57ed600000000000000000000000000000000000000000000000000000000815260040160405180910390fd5b805181602001fd5b63150b7a0260e01b7bffffffffffffffffffffffffffffffffffffffffffffffffffffffff1916817bffffffffffffffffffffffffffffffffffffffffffffffffffffffff191614915050949350505050565b606060008214156119f1576040518060400160405280600181526020017f30000000000000000000000000000000000000000000000000000000000000008152509050611b51565b600082905060005b60008214611a23578080611a0c9061298e565b915050600a82611a1c9190612810565b91506119f9565b60008167ffffffffffffffff811115611a65577f4e487b7100000000000000000000000000000000000000000000000000000000600052604160045260246000fd5b6040519080825280601f01601f191660200182016040528015611a975781602001600182028036833780820191505090505b5090505b60008514611b4a57600182611ab09190612841565b9150600a85611abf91906129d7565b6030611acb91906127ba565b60f81b818381518110611b07577f4e487b7100000000000000000000000000000000000000000000000000000000600052603260045260246000fd5b60200101907effffffffffffffffffffffffffffffffffffffffffffffffffffffffffffff1916908160001a905350600a85611b439190612810565b9450611a9b565b8093505050505b919050565b6000611b606110d8565b60005403905090565b611b83828260405180602001604052806000815250611b93565b5050565b50505050565b50505050565b611ba08383836001611ba5565b505050565b600080549050600073ffffffffffffffffffffffffffffffffffffffff168573ffffffffffffffffffffffffffffffffffffffff161415611c12576040517f2e07630000000000000000000000000000000000000000000000000000000000815260040160405180910390fd5b6000841415611c4d576040517fb562e8dd00000000000000000000000000000000000000000000000000000000815260040160405180910390fd5b611c5a6000868387611b87565b83600560008773ffffffffffffffffffffffffffffffffffffffff1673ffffffffffffffffffffffffffffffffffffffff16815260200190815260200160002060000160008282829054906101000a900467ffffffffffffffff160192506101000a81548167ffffffffffffffff021916908367ffffffffffffffff16021790555083600560008773ffffffffffffffffffffffffffffffffffffffff1673ffffffffffffffffffffffffffffffffffffffff16815260200190815260200160002060000160088282829054906101000a900467ffffffffffffffff160192506101000a81548167ffffffffffffffff021916908367ffffffffffffffff160217905550846004600083815260200190815260200160002060000160006101000a81548173ffffffffffffffffffffffffffffffffffffffff021916908373ffffffffffffffffffffffffffffffffffffffff160217905550426004600083815260200190815260200160002060000160146101000a81548167ffffffffffffffff021916908367ffffffffffffffff160217905550600081905060008582019050838015611e245750611e238773ffffffffffffffffffffffffffffffffffffffff16611826565b5b15611eea575b818773ffffffffffffffffffffffffffffffffffffffff16600073ffffffffffffffffffffffffffffffffffffffff167fddf252ad1be2c89b69c2b068fc378daa952ba7f163c4a11628f55a4df523b3ef60405160405180910390a4611e996000888480600101955088611849565b611ecf576040517fd1a57ed600000000000000000000000000000000000000000000000000000000815260040160405180910390fd5b80821415611e2a578260005414611ee557600080fd5b611f56565b5b818060010192508773ffffffffffffffffffffffffffffffffffffffff16600073ffffffffffffffffffffffffffffffffffffffff167fddf252ad1be2c89b69c2b068fc378daa952ba7f163c4a11628f55a4df523b3ef60405160405180910390a480821415611eeb575b816000819055505050611f6c6000868387611b8d565b5050505050565b828054611f7f9061292b565b90600052602060002090601f016020900481019282611fa15760008555611fe8565b82601f10611fba57805160ff1916838001178555611fe8565b82800160010185558215611fe8579182015b82811115611fe7578251825591602001919060010190611fcc565b5b509050611ff5919061203c565b5090565b6040518060600160405280600073ffffffffffffffffffffffffffffffffffffffff168152602001600067ffffffffffffffff1681526020016000151581525090565b5b8082111561205557600081600090555060010161203d565b5090565b600061206c61206784612700565b6126db565b90508281526020810184848401111561208457600080fd5b61208f8482856128e9565b509392505050565b60006120aa6120a584612731565b6126db565b9050828152602081018484840111156120c257600080fd5b6120cd8482856128e9565b509392505050565b6000813590506120e481612b76565b92915050565b6000813590506120f981612b8d565b92915050565b60008135905061210e81612ba4565b92915050565b60008151905061212381612ba4565b92915050565b600082601f83011261213a57600080fd5b813561214a848260208601612059565b91505092915050565b600082601f83011261216457600080fd5b8135612174848260208601612097565b91505092915050565b60008135905061218c81612bbb565b92915050565b6000602082840312156121a457600080fd5b60006121b2848285016120d5565b91505092915050565b600080604083850312156121ce57600080fd5b60006121dc858286016120d5565b92505060206121ed858286016120d5565b9150509250929050565b60008060006060848603121561220c57600080fd5b600061221a868287016120d5565b935050602061222b868287016120d5565b925050604061223c8682870161217d565b9150509250925092565b6000806000806080858703121561225c57600080fd5b600061226a878288016120d5565b945050602061227b878288016120d5565b935050604061228c8782880161217d565b925050606085013567ffffffffffffffff8111156122a957600080fd5b6122b587828801612129565b91505092959194509250565b600080604083850312156122d457600080fd5b60006122e2858286016120d5565b92505060206122f3858286016120ea565b9150509250929050565b6000806040838503121561231057600080fd5b600061231e858286016120d5565b925050602061232f8582860161217d565b9150509250929050565b60006020828403121561234b57600080fd5b6000612359848285016120ff565b91505092915050565b60006020828403121561237457600080fd5b600061238284828501612114565b91505092915050565b60006020828403121561239d57600080fd5b600082013567ffffffffffffffff8111156123b757600080fd5b6123c384828501612153565b91505092915050565b6000602082840312156123de57600080fd5b60006123ec8482850161217d565b91505092915050565b6123fe81612875565b82525050565b61240d81612887565b82525050565b600061241e82612777565b612428818561278d565b93506124388185602086016128f8565b61244181612ac4565b840191505092915050565b600061245782612782565b612461818561279e565b93506124718185602086016128f8565b61247a81612ac4565b840191505092915050565b600061249082612782565b61249a81856127af565b93506124aa8185602086016128f8565b80840191505092915050565b600081546124c38161292b565b6124cd81866127af565b945060018216600081146124e857600181146124f95761252c565b60ff1983168652818601935061252c565b61250285612762565b60005b8381101561252457815481890152600182019150602081019050612505565b838801955050505b50505092915050565b600061254260168361279e565b915061254d82612ad5565b602082019050919050565b600061256560298361279e565b915061257082612afe565b604082019050919050565b60006125886005836127af565b915061259382612b4d565b600582019050919050565b6125a7816128df565b82525050565b60006125b982856124b6565b91506125c58284612485565b91506125d08261257b565b91508190509392505050565b60006020820190506125f160008301846123f5565b92915050565b600060808201905061260c60008301876123f5565b61261960208301866123f5565b612626604083018561259e565b81810360608301526126388184612413565b905095945050505050565b60006020820190506126586000830184612404565b92915050565b60006020820190508181036000830152612678818461244c565b905092915050565b6000602082019050818103600083015261269981612535565b9050919050565b600060208201905081810360008301526126b981612558565b9050919050565b60006020820190506126d5600083018461259e565b92915050565b60006126e56126f6565b90506126f1828261295d565b919050565b6000604051905090565b600067ffffffffffffffff82111561271b5761271a612a95565b5b61272482612ac4565b9050602081019050919050565b600067ffffffffffffffff82111561274c5761274b612a95565b5b61275582612ac4565b9050602081019050919050565b60008190508160005260206000209050919050565b600081519050919050565b600081519050919050565b600082825260208201905092915050565b600082825260208201905092915050565b600081905092915050565b60006127c5826128df565b91506127d0836128df565b9250827fffffffffffffffffffffffffffffffffffffffffffffffffffffffffffffffff0382111561280557612804612a08565b5b828201905092915050565b600061281b826128df565b9150612826836128df565b92508261283657612835612a37565b5b828204905092915050565b600061284c826128df565b9150612857836128df565b92508282101561286a57612869612a08565b5b828203905092915050565b6000612880826128bf565b9050919050565b60008115159050919050565b60007fffffffff0000000000000000000000000000000000000000000000000000000082169050919050565b600073ffffffffffffffffffffffffffffffffffffffff82169050919050565b6000819050919050565b82818337600083830152505050565b60005b838110156129165780820151818401526020810190506128fb565b83811115612925576000848401525b50505050565b6000600282049050600182168061294357607f821691505b6020821081141561295757612956612a66565b5b50919050565b61296682612ac4565b810181811067ffffffffffffffff8211171561298557612984612a95565b5b80604052505050565b6000612999826128df565b91507fffffffffffffffffffffffffffffffffffffffffffffffffffffffffffffffff8214156129cc576129cb612a08565b5b600182019050919050565b60006129e2826128df565b91506129ed836128df565b9250826129fd576129fc612a37565b5b828206905092915050565b7f4e487b7100000000000000000000000000000000000000000000000000000000600052601160045260246000fd5b7f4e487b7100000000000000000000000000000000000000000000000000000000600052601260045260246000fd5b7f4e487b7100000000000000000000000000000000000000000000000000000000600052602260045260246000fd5b7f4e487b7100000000000000000000000000000000000000000000000000000000600052604160045260246000fd5b6000601f19601f8301169050919050565b7f4e6f206d6f726520737570706c7920746f206d696e7400000000000000000000600082015250565b7f4f776e61626c653a2063616c6c6572206973206e6f742074686520636f6e747260008201527f616374206f776e65720000000000000000000000000000000000000000000000602082015250565b7f2e6a736f6e000000000000000000000000000000000000000000000000000000600082015250565b612b7f81612875565b8114612b8a57600080fd5b50565b612b9681612887565b8114612ba157600080fd5b50565b612bad81612893565b8114612bb857600080fd5b50565b612bc4816128df565b8114612bcf57600080fd5b5056fea2646970667358221220a5615aa8c3b69930d203b878f6bdc08f93a21b554d7b700cf964a61c3edc210364736f6c6343000804003368747470733a2f2f6561737465722e696e667572612d697066732e696f2f697066732f516d546f7551554875645a7a647834474c67715152734145726178444e51593941536570376e4a36436a465063432f",
  "linkReferences": {},
  "deployedLinkReferences": {}
}